:020000040800F2
:10000000700A0020F10200084B090008AD07000843
:100010001D08000867060008A10F00080000000086
:10002000000000000000000000000000390200088D
:1000300069060008000000008D020008810D00081C
:100040000B0300080B0300080B0300080B03000858
:100050000B0300080B0300080B0300080B03000848
:100060000B0300080B0300080B0300080B03000838
:100070000B0300080B0300080B0300080B03000828
:100080000B0300080B0300080B0300080B03000818
:100090000B0300080B0300080B0300080B03000808
:1000A0000B0300080B0300080B0300080B030008F8
:1000B0000B0300080B0300080B0300080B030008E8
:1000C0000B0300080B0300080B0300080B030008D8
:1000D0000B0300080B0300080B030008F10D0008D8
:1000E0000B0300080B0300080B0300080B030008B8
:1000F0000B0300080B0300080B0300080B030008A8
:100100000B0300080B0300080B0300080B03000897
:100110000B0300080B0300080B0300080B03000887
:100120000B0300080B0300080B0300080B03000877
:100130000B0300080B0300080B0300080B03000867
:100140000B0300080B0300080B0300080B03000857
:100150000B0300080B0300080B0300080B03000847
:100160000B0300080B0300080B0300080B03000837
:100170000B0300080B0300080B0300080B03000827
:100180000B0300080B03000800F002F800F044F82D
:100190000AA090E8000C82448344AAF10107DA45E2
:1001A00001D100F039F8AFF2090EBAE80F0013F0F0
:1001B000010F18BFFB1A43F0010318474416000053
:1001C00064160000103A24BF78C878C1FAD85207E4
:1001D00024BF30C830C144BF04680C6070470000C1
:1001E0000023002400250026103A28BF78C1FBD840
:1001F000520728BF30C148BF0B607047642900F028
:100200000381732900F0C481002070471FB501F0FD
:10021000DFFA1FBD10B510BD00F0D4F91146FFF78D
:10022000F5FF00F01BFF00F0F2F903B4FFF7F2FF57
:1002300003BC00F0B6FE00002A4B19680868B0E85D
:10024000F04F80F30988BFF36F8F4FF0000080F309
:10025000118870470000000006480068006880F3BD
:10026000088862B661B6BFF34F8FBFF36F8F00DFB0
:1002700000BF00BF08ED00E0DFF80C00016841F4AA
:1002800070010160704700BF88ED00E0EFF3098066
:10029000BFF36F8F134B1A681EF0100F08BF20EDCD
:1002A000108A20E9F04F106008B44FF0500080F33E
:1002B0001188BFF34F8FBFF36F8F01F041F94FF0FB
:1002C000000080F3118808BC19680868B0E8F04F96
:1002D0001EF0100F08BFB0EC108A80F30988BFF33E
:1002E0006F8F70471C000020EFF3058070470000FF
:1002F0000948804709480047FEE7FEE7FEE7FEE7BA
:10030000FEE7FEE7FEE7FEE7FEE7FEE704480549F5
:10031000054A064B70470000950D0008890100084A
:1003200070040020700A0020700600207006002073
:10033000704700000FB4044910B503AA029800F0FA
:100340002BF910BC5DF814FB080000202DE9F041EA
:100350000E460446002020622046E168884730B3FC
:10036000252805D0D4E901219047206A401CF2E7F6
:10037000E168204600278847050018D0A5F1410014
:10038000192802D820354FF4006732462946204606
:100390002760FFF733FF40B1012804D0F61D26F097
:1003A00007060836D8E7361DD6E72846DAE7206A7A
:1003B000BDE8F08170B50C460546012A05D02878C5
:1003C000800600D5EA69002302E0012305E05B1CFA
:1003D000934202D2E05C0028F9D1A869E618C01A5D
:1003E000A861286A184428622846AFF3008004E018
:1003F000D5E9012114F8010B9047B442F8D32846FF
:10040000AFF3008070BD00002DE9F04106460024E6
:1004100010687529314616A510D0AFF3008000286A
:1004200002DA404213A507E031688A0701D512A518
:1004300002E0490704D511A5012401E0AFF30080D3
:1004400000210A2206F1240709E0B0FBF2FCB0FB10
:10045000F2F302FB1C00303078541846491C002887
:10046000F3D123462A463046BDE8F04100F00CB8EF
:10047000000000002D0000002B0000002000000004
:1004800070477047704770472DE9F0470D46994611
:100490009246044600F124080168880604D5E06904
:1004A00021F01001216000E00120A84201DD471B7E
:1004B00000E00027A1697A1902EB0900081AA0617F
:1004C0002078C00602D42046AFF30080002608E062
:1004D000D4E901211AF806009047206A401C761CD6
:1004E00020624E45F4DB2078C0060AD52046AFF3E3
:1004F000008006E0D4E9012130209047206A401CAA
:100500002062381EA7F10107F4DC07E0D4E90121DD
:1005100018F805009047206A401C2062281EA5F1AB
:100520000105F3DC2046AFF300802078000602D5F9
:100530000220BDE8F0870120FBE7000001694A1CAA
:1005400002610878704700B58FB0CDE90131002114
:10055000059105497944CDE9031011466846FFF736
:10056000F5FE0FB000BD0000E5FFFFFF10B54369C9
:1005700013B1AFF3008001E0FFF71CFF012010BDB5
:10058000127800F124010A7000224A700122EDE77E
:1005900011684FF0FF32E9E7074B70B50D467B4419
:1005A000FFF7D1FF0446284600F008F810B14FF0DD
:1005B000FF3070BD204670BDA70A0000007B00F030
:1005C00080007047754600F02BF8AE46050069467E
:1005D000534620F00700854618B020B5FFF796FE79
:1005E000BDE820404FF000064FF000074FF0000834
:1005F0004FF0000B21F00701AC46ACE8C009ACE8B5
:10060000C009ACE8C009ACE8C0098D46704710B518
:100610000446AFF300802046BDE81040FFF705BE5A
:10062000004870471004002010B50F21012000F091
:1006300003FB1521022000F0FFFA0021032000F047
:10064000FBFA03212C2000F0F7FA1A212D2000F0EC
:10065000F3FA0021322000F0EFFA0321BDE8104048
:10066000312000F0E9BAFEE77047F0B5002201271B
:100670004FF0030C0B6807FA02F52B40AB422CD16C
:10068000066853000CFA03F4A64306600E79D0F80E
:1006900000E09E4046EA0E0606600E79012E01D06B
:1006A000022E12D18668A64386604E79D0F808E003
:1006B0009E4046EA0E0686604668AE434660456840
:1006C0008E799640B6B235434560C568A543C5608E
:1006D000CC799C40C3681C43C460521C102AC9D307
:1006E000F0BD4B07DB0E9A40C90810B500EB810046
:1006F000016A0F249C40A1430162016A1143016217
:1007000010BD41837047018370470000F8B507466C
:1007100000201C4615460E46009000F06BF90120A3
:1007200000F006FA212000F0D7F90028FAD01C4882
:10073000006800F002000090022800D0FEE7184890
:100740004030016841F0805101601648016841F471
:1007500040410160002000F0E1F94FF4805000F0CA
:10076000F7F94FF4A05000F0E9F92B46324639462C
:100770000020009400F0FCF9012000F0F3F939208A
:1007800000F0AAF90028FAD0074940F20570086085
:10079000022000F001FA00F0B9F90828FBD1F8BDF9
:1007A0000038024000700040003C0240FEE70000BC
:1007B0001CB50121102000F005F94FF400700090E5
:1007C00000208DF8040003218DF805108DF8070036
:1007D00069460248FFF749FF1CBD000000100240B7
:1007E0001CB50121402000F0EDF80C200090012004
:1007F0008DF8040000208DF8060003218DF8051007
:10080000054C8DF8070069462046FFF72EFF0C21A6
:100810002046FFF778FF1CBD00180240FEE710B528
:100820004FF48C71042000F007FA0021052000F03D
:1008300003FAAD21062000F0FFF90A21072000F09D
:10084000FBF90021082000F0F7F908210A2000F048
:10085000F3F9FF210B2000F0EFF94FF4FC710E20AB
:1008600000F0EAF9FF210F2000F0E6F978211220CC
:1008700000F0E2F90021132000F0DEF9002114203D
:1008800000F0DAF90021152000F0D6F90021162039
:1008900000F0D2F90021182000F0CEF90021192033
:1008A00000F0CAF900211B2000F0C6F900211C202D
:1008B00000F0C2F900211D2000F0BEF900211E2029
:1008C00000F0BAF90021202000F0B6F90021212023
:1008D00000F0B2F90021222000F0AEF9002123201F
:1008E00000F0AAF90C21242000F0A6F90C21252003
:1008F00000F0A2F9DD21262000F09EF95E212720DC
:1009000000F09AF90021282000F096F904212C200B
:1009100000F092F9B2212D2000F08EF90221312051
:1009200000F08AF94FF480712F2000F085F9022140
:10093000312000F081F90121322000F07DF94021C1
:10094000BDE81040382000F077B9704730B50F236C
:10095000C27801780125FAB1144A126801F1E02148
:1009600002F4E062C2F5E062C2F30722C2F10404BD
:10097000D3404278A24084781C401443220181F87D
:100980000024007800F01F018D404009800000F134
:10099000E020C0F8005130BD01F01F00854048093B
:1009A000800000F1E020C0F8805130BD0CED00E087
:1009B0000249084302490860704700000000FA0538
:1009C0000CED00E0044A0029116801D0014300E069
:1009D000814311607047000030380240044A00290A
:1009E000116801D0014300E08143116070470000AD
:1009F000403802401048016841F0010101600E4A90
:100A000000210832116002680C4B1A400260031D7D
:100A10000B4A1A60084B0B4A84331A60084A103A92
:100A20001B1D1A60026822F48022026002480C300A
:100A30000160181D0160704700380240FFFFF6EAB0
:100A4000103000240030002070B5204B1968204C75
:100A500011F00C0104D06610042903D0082903D03A
:100A600004601BE0066019E0184A121F1168C1F308
:100A70008055116801F03F0115B1B6FBF1F101E0BD
:100A8000B4FBF1F114681268C4F388146143C2F333
:100A90000142521C5200B1FBF2F1016019680F22B1
:100AA00002EA11110B4A545C0168E14041601C6884
:100AB000072505EA9424145D21FA04F484601B6878
:100AC00005EA5333D25CD140C16070BD08380240A2
:100AD0000024F4000C0000200246002051090129E6
:100AE0000BD002290CD00849096802F01F0201232B
:100AF00093400B4200D00120704703497439F3E75B
:100B00000149091FF0E700007438024002480068FC
:100B100000F00C007047000008380240034A1168DA
:100B200021F0F001014311607047000008380240D5
:100B3000014908607047000000004742034A1168FD
:100B400021F4E05101431160704700000838024071
:100B5000034A116821F4604141EAC0001060704707
:100B6000083802400149086670470000000047420B
:100B700041EA82115A0810B5054B029C03EB024270
:100B80001143014341EA04600249086010BD0000BE
:100B90000000FFFF04380240034A116821F00301FE
:100BA0000143116070470000083802407CB5012104
:100BB0000846FFF707FF01210220FFF703FF01218D
:100BC0000420FFF7FFFE4FF4A050012400908DF8A1
:100BD000044000208DF8060002218DF80510134D09
:100BE0008DF8070069462846FFF73FFDA102284619
:100BF000FFF789FD0E4EE50300958DF80440694628
:100C00003046FFF732FD29463046FFF77CFD2503CD
:100C10008DF80440074C009569462046FFF725FDF6
:100C200029462046FFF76FFD7CBD0000000802400A
:100C300000000240000402402DE9F05F1C4F60F309
:100C40005F210024DFF864B08DB24FF480594FF675
:100C5000FF784FF4004A3E1528044946384602D52D
:100C6000FFF751FD01E0FFF74CFD08EA450531466D
:100C70003846FFF746FD052000F0CCF90F2C03D1D4
:100C800051465846FFF73DFD31463846FFF73BFDDC
:100C9000052000F0BFF9641CE4B2102CDCD35146EF
:100CA0005846BDE8F05FFFF72EBD0000000002408F
:100CB000000802400CB50022274900920192086802
:100CC00040F4803008604FF4A043086800F400301E
:100CD00001900098401C0090019810B9009898422B
:100CE000F3D10868800334D5012001901A484030C0
:100CF000026842F0805202601848026842F44042A2
:100D000002601548083002680260026842F400423E
:100D10000260026842F4A0520260031F104A1A6087
:100D20000A6842F080720A600A689201FCD50D4997
:100D300040F205720A60016821F003010160016858
:100D400041F0020101600168C1F381010229FAD179
:100D50000CBD01920CBD0000003802400070004044
:100D600008544007003C02404FF0E0210428086985
:100D700003D020F004000861704740F00400FAE757
:100D800010B500F031FC012803D0BDE8104000F0A0
:100D900015BC10BD124810B5016841F47001016026
:100DA0001048016841F0010101600E4A002108323B
:100DB000116002680C4B1A400260031D0B4A1A6056
:100DC000026822F48022026006480C300160FFF7BE
:100DD00071FF03494FF000608039086010BD0000CA
:100DE00088ED00E000380240FFFFF6FE10300024DE
:100DF00070B5154C40F22551204600F03CF8002813
:100E00000ED0204600F0C4F8104AC1B21088030486
:100E100006D444044FF0000306D50A2901D01380FC
:100E200070BD40F400400DE00D2909D0C0F30D0461
:100E3000074D401C80B229551080C728EFD870BDDF
:100E400040F48040108070BD004800400400002045
:100E5000640000200029818902D041F4005101E0A2
:100E600021F40051818170470246002012880A4215
:100E700000D00120704770B501F01F050126002445
:100E8000C1F3421306FA05F2012B0FD0022B0FD04B
:100E9000838A4FEA11210088134206FA01F600EA1C
:100EA000060001D000B10124204670BD8389F0E71F
:100EB000038AEEE710B5C1F3421301F01F040121CC
:100EC000A140012B07D0022B07D01430002A026862
:100ED00005D00A4304E00C30F8E71030F6E78A4307
:100EE000026010BD7FB50446008A0D46C98820F413
:100EF000405001432182A08941F20C618843A988B6
:100F00002A8911436A8902431143A181A08A20F4EE
:100F10004071A8890843A0826846FFF795FD1A48EA
:100F2000844202D01948844201D1039800E002981B
:100F3000A189090400EBC00101EB0010296801D56B
:100F4000490000E08900B0FBF1F06422B0FBF2F14F
:100F500009010B096FF018056B4300EB8300A389AF
:100F60001D044FF0320306D503EBC000B0FBF2F0D6
:100F700000F0070005E003EB0010B0FBF2F000F01A
:100F80000F00084320817FBD001001400014014084
:100F90008088C0F308007047C1F308018180704762
:100FA000FEE7704710B504460420FFF7DDFE0A484F
:100FB0004FF47A71047014FB01F1012242804FF06A
:100FC000E020026942F0020202614161016941F0E0
:100FD0000101016110BD00000000002070B5044651
:100FE00000F002FB01280CD0094D6888844203D32D
:100FF000B4FBF0F000F066FA6888B4FBF0F100FB97
:1010000011444FF47A706043BDE8704000F002B8BC
:101010000000002070B54FF0E02500216C69094AFE
:10102000AB6912785043AA699A42FCD002D2A3EB72
:10103000020302E0A4EB0206334419441346814242
:10104000F1D370BD0000002003490A885206FCD588
:10105000C2B28A80704700000010014007230222BC
:101060004FF4A8711020FFF751FB4FF44070FFF7C9
:101070009FFCA820FFF796FF4FF4E13000F018F92D
:10108000FFF796FBFFF7ACFB00F0F4F800F03EF83A
:1010900000F058F8002000F07DF8FFF787FD0021F0
:1010A0000846FFF7C9FD0120FFF798FFFFF7B7FBE0
:1010B000FFF7BAFA124F134EDFF84C904FF47A78DC
:1010C0004046FFF78BFF0C214846FFF71AFB24250B
:1010D00000243046395DFFF75FFF40213046FFF7BF
:1010E000C3FE0128F9D1641CE4B2AC42F1D34046FE
:1010F000FFF774FF0C214846FFF705FBE0E700000F
:10110000DA17000800480040001802401CB5012111
:101110000846FFF757FC0220009001208DF80400DC
:1011200003218DF80510064C8DF80700694620460E
:10113000FFF79BFA02212046FFF7E5FA1CBD0000ED
:10114000000002401CB501212A20FFF73BFC4FF4B0
:101150008050009001208DF8040003218DF80510C7
:101160008DF8070069460848FFF77FFA07200090CE
:1011700069460648FFF779FA4FF400500090694637
:101180000348FFF772FA1CBD00040240000C024045
:101190000014024070B5104A4FF480540F4D104EA9
:1011A0000028214610460BD0FFF7ADFA072128464C
:1011B000FFF7A7FA21463046FFF7A3FA012070BDDA
:1011C000FFF79FFA07212846FFF79DFA2146304690
:1011D000FFF799FA002070BD00040240000C0240A5
:1011E000001402402DE9F041184E0F460446F56800
:1011F0003068001D00F0C2F838B9306890F82C1043
:1012000001208840316981433161601C07D137B1C9
:101210003168BDE8F0410E48091D00F0D9B83068CA
:101220002C44AC424460316805D2B06BBDE8F0415B
:10123000091D00F0B5B8706B091D00F0B1F8B06A77
:10124000844200D2B462BDE8F08100001C0000209E
:10125000FC0300200648416B096829B1416BC9684D
:10126000C9684968816270474FF0FF31FAE70000B2
:101270001C0000201CB501210220FFF7A3FB4FF446
:10128000C060009001208DF8040003218DF8051046
:10129000064C8DF8070069462046FFF7E6F94FF443
:1012A000E0612046FFF72FFA1CBD00000004024059
:1012B0002DE9F041804688B001210820FFF782FB2C
:1012C00001218804FFF78AFB2A4F072208213846AC
:1012D000FFF707FA072209213846FFF702FA02252D
:1012E0008DF8045078158DF80550002400908DF885
:1012F000064001268DF8076069463846FFF7B5F9C4
:101300008DF80450E8018DF8055000908DF80660C6
:101310008DF8074069463846FFF7A7F9ADF80C404D
:10132000ADF80E40ADF81040ADF814400C20124C52
:10133000ADF81200CDF8088002A92046FFF7D2FDD3
:1013400001212046FFF786FD012240F2255120466B
:10135000FFF7B0FD27208DF8180003208DF8190045
:101360008DF81A008DF81B6006A8FFF7EFFA08B099
:10137000BDE8F081000C024000480040D0E9013295
:1013800001699A60D0E901235A604A68824201D11A
:1013900082684A60002202610868401E0860704747
:1013A00030B50C68621C02D000F1080202E002694C
:1013B00004E01A4653681D68A542FAD953684B6089
:1013C00099608A60516008610168491C016030BD04
:1013D00042684A6093688B609368596091600861C5
:1013E0000168491C01607047502080F31188BFF3E9
:1013F0004F8FBFF36F8F09494868401C4860012830
:101400000AD10748006810F0FF0F05D040F2B9126A
:1014100004A10FA0FEF78EBF704700005800002007
:1014200004ED00E02E2E5C4672656552544F535C0D
:10143000706F727461626C655C525644535C4152C9
:101440004D5F434D34465C706F72742E6300000034
:101450004572726F723A25732C25640D0A000000E4
:1014600010B5084C606828B94FF4E07206A111A0CD
:10147000FEF760FF6068401E606001D180F3118854
:1014800010BD0000580000202E2E5C46726565528B
:10149000544F535C706F727461626C655C52564459
:1014A000535C41524D5F434D34465C706F72742EF5
:1014B000630000004572726F723A25732C25640D2B
:1014C0000A00000010B5040012D00E49096B29B1C2
:1014D00040F2CF420CA111A0FEF72CFF00F028F83B
:1014E00000212046FFF77EFE00F000F9002807D11A
:1014F0000E494FF080500860BFF34F8FBFF36F8FDE
:1015000010BD00001C0000202E2E5C467265655246
:10151000544F535C7461736B732E63004572726F2A
:10152000723A25732C25640D0A00000004ED00E0DA
:101530000248016B491C0163704700001C00002039
:1015400070B5134D286B10B10120E86170BD00200B
:10155000E86128690F4EB0FA80F0C0F11F0000EB7F
:10156000800456F8240028B940F6F6220AA10FA0FC
:10157000FEF7E0FE06EB840000F1080241684968CE
:101580004160914201D149684160C868286070BDDE
:101590001C0000202C0100202E2E5C467265655236
:1015A000544F535C7461736B732E63004572726F9A
:1015B000723A25732C25640D0A00000010B55020E6
:1015C00080F31188BFF34F8FBFF36F8F00F01AF8CD
:1015D00018B104494FF080500860002080F3118852
:1015E00010BD000004ED00E00548416919B1006B31
:1015F00018B100207047012070470220704700009A
:101600001C0000202DE9F0412D4F0026386B40B121
:10161000B869401CB861F86900B101263046BDE8E0
:10162000F081FD686D1CFD6011D1786B006828B1F8
:1016300040F6D91223A128A0FEF77CFE786BB96B87
:101640007963B863386A401C3862FFF703FEB86AF2
:10165000DFF89480854209D3786B006880B1786B9D
:10166000C068C468606885420DD2B8623868C06AD4
:1016700000EB800158F821000128CCD90126CAE7E7
:101680004FF0FF30F1E7201DFFF778FEA06A18B198
:1016900004F11800FFF772FEE06A01213A69814007
:1016A0001143396100EB800108EB8100211DFFF738
:1016B0008FFEE06A3968C96A8842CDD30126CBE73C
:1016C0001C0000202E2E5C4672656552544F535C00
:1016D0007461736B732E63004572726F723A257377
:1016E0002C25640D0A0000002C0100202DE9F04794
:1016F0002B4D00242746286B28B94FF4FD6229A101
:101700002DA0FEF717FEFFF76FFE286B401E286323
:10171000286BE8BBA8682C490126C8B3A1F52A7933
:101720008846D8F80010E9B1D8F80C00C46804F174
:101730001800FFF723FE201DFFF720FEE06A2A694C
:1017400006FA00F11143296100EB800109EB8100E9
:10175000211DFFF73DFEE06A2968C96A8842E0D38F
:10176000EE61DEE70CB1FFF775FDAC693CB1FFF748
:1017700049FF00B1EE61641EF9D10020A861E8695B
:1017800030B11249012738070860BFF34F8F00E0DE
:1017900001E0BFF36F8FFFF763FE3846BDE8F087C7
:1017A0001C0000202E2E5C4672656552544F535C1F
:1017B0007461736B732E63004572726F723A257396
:1017C0002C25640D0A000000D403002004ED00E085
:1017D0004FF04070E1EE100A70470000000000007A
:1017E00000000000000000000000550A0F18000073
:1017F00000000000000000000000000000170000D2
:10180000201800080000002064000000C401000847
:1018100084180008640000200C0A0000E0010008A1
:1018200000000000000000000000000000000000B8
:101830000102030401020304060708090000000076
:101840000000000000000000000000000000000098
:101850000000000000000000000000000000000088
:101860000000000000000000000000000000000078
:10187000000000000000000000000000AAAAAAAAC0
:041880000000000064
:040000050800018965
:00000001FF
