:020000040800F2
:10000000B00D0020F10200080F070008CD0600081F
:100010000D07000829060008B50D000800000000C3
:10002000000000000000000000000000390200088D
:100030002B060008000000008D020008E10A0008FD
:100040000B0300080B0300080B0300080B03000858
:100050000B0300080B0300080B0300080B03000848
:100060000B0300080B0300080B0300080B03000838
:100070000B0300080B0300080B0300080B03000828
:100080000B0300080B0300080B0300080B03000818
:100090000B0300080B0300080B0300080B03000808
:1000A0000B0300080B0300080B0300080B030008F8
:1000B000510B00080B0300080B0300080B0300089A
:1000C0000B0300080B0300080B0300080B030008D8
:1000D0000B030008410C00080B0300080B03000889
:1000E0000B0300080B0300080B0300080B030008B8
:1000F0000B0300080B0300080B0300080B030008A8
:100100000B0300080B0300080B0300080B03000897
:100110000B0300080B0300080B0300080B03000887
:100120000B0300080B0300080B0300080B03000877
:100130000B0300080B0300080B0300080B03000867
:100140000B0300080B0300080B0300080B03000857
:100150000B0300080B0300080B0300080B03000847
:100160000B0300080B0300080B0300080B03000837
:100170000B0300080B0300080B0300080B03000827
:100180000B0300080B03000800F002F800F044F82D
:100190000AA090E8000C82448344AAF10107DA45E2
:1001A00001D100F039F8AFF2090EBAE80F0013F0F0
:1001B000010F18BFFB1A43F001031847F0110000AC
:1001C00010120000103A24BF78C878C1FAD852073C
:1001D00024BF30C830C144BF04680C6070470000C1
:1001E0000023002400250026103A28BF78C1FBD840
:1001F000520728BF30C148BF0B607047642900F028
:100200000381732900F0C481002070471FB501F0FD
:10021000C7F81FBD10B510BD00F0D4F91146FFF7A7
:10022000F5FF00F025FE00F0F2F903B4FFF7F2FF4E
:1002300003BC00F0C0FD00002A4B19680868B0E854
:10024000F04F80F30988BFF36F8F4FF0000080F309
:10025000118870470000000006480068006880F3BD
:10026000088862B661B6BFF34F8FBFF36F8F00DFB0
:1002700000BF00BF08ED00E0DFF80C00016841F4AA
:1002800070010160704700BF88ED00E0EFF3098066
:10029000BFF36F8F134B1A681EF0100F08BF20EDCD
:1002A000108A20E9F04F106008B44FF0500080F33E
:1002B0001188BFF34F8FBFF36F8F00F029FF4FF00E
:1002C000000080F3118808BC19680868B0E8F04F96
:1002D0001EF0100F08BFB0EC108A80F30988BFF33E
:1002E0006F8F704720000020EFF3058070470000FB
:1002F0000948804709480047FEE7FEE7FEE7FEE7BA
:10030000FEE7FEE7FEE7FEE7FEE7FEE704480549F5
:10031000054A064B70470000F50A000889010008ED
:10032000B0070020B00D0020B0090020B009002067
:10033000704700000FB4044910B503AA029800F0FA
:100340002BF910BC5DF814FB0C0000202DE9F041E6
:100350000E460446002020622046E168884730B3FC
:10036000252805D0D4E901219047206A401CF2E7F6
:10037000E168204600278847050018D0A5F1410014
:10038000192802D820354FF4006732462946204606
:100390002760FFF733FF40B1012804D0F61D26F097
:1003A00007060836D8E7361DD6E72846DAE7206A7A
:1003B000BDE8F08170B50C460546012A05D02878C5
:1003C000800600D5EA69002302E0012305E05B1CFA
:1003D000934202D2E05C0028F9D1A869E618C01A5D
:1003E000A861286A184428622846AFF3008004E018
:1003F000D5E9012114F8010B9047B442F8D32846FF
:10040000AFF3008070BD00002DE9F04106460024E6
:1004100010687529314616A510D0AFF3008000286A
:1004200002DA404213A507E031688A0701D512A518
:1004300002E0490704D511A5012401E0AFF30080D3
:1004400000210A2206F1240709E0B0FBF2FCB0FB10
:10045000F2F302FB1C00303078541846491C002887
:10046000F3D123462A463046BDE8F04100F00CB8EF
:10047000000000002D0000002B0000002000000004
:1004800070477047704770472DE9F0470D46994611
:100490009246044600F124080168880604D5E06904
:1004A00021F01001216000E00120A84201DD471B7E
:1004B00000E00027A1697A1902EB0900081AA0617F
:1004C0002078C00602D42046AFF30080002608E062
:1004D000D4E901211AF806009047206A401C761CD6
:1004E00020624E45F4DB2078C0060AD52046AFF3E3
:1004F000008006E0D4E9012130209047206A401CAA
:100500002062381EA7F10107F4DC07E0D4E90121DD
:1005100018F805009047206A401C2062281EA5F1AB
:100520000105F3DC2046AFF300802078000602D5F9
:100530000220BDE8F0870120FBE7000001694A1CAA
:1005400002610878704700B58FB0CDE90131002114
:10055000059105497944CDE9031011466846FFF736
:10056000F5FE0FB000BD0000E5FFFFFF10B54369C9
:1005700013B1AFF3008001E0FFF71CFF012010BDB5
:10058000127800F124010A7000224A700122EDE77E
:1005900011684FF0FF32E9E7074B70B50D467B4419
:1005A000FFF7D1FF0446284600F008F810B14FF0DD
:1005B000FF3070BD204670BDBB080000007B00F01E
:1005C00080007047754600F02BF8AE46050069467E
:1005D000534620F00700854618B020B5FFF796FE79
:1005E000BDE820404FF000064FF000074FF0000834
:1005F0004FF0000B21F00701AC46ACE8C009ACE8B5
:10060000C009ACE8C009ACE8C0098D46704710B518
:100610000446AFF300802046BDE81040FFF705BE5A
:10062000004870474C070020FEE77047F0B50022F5
:1006300001274FF0030C0B6807FA02F52B40AB4281
:100640002CD1066853000CFA03F4A64306600E7919
:10065000D0F800E09E4046EA0E0606600E79012EB4
:1006600001D0022E12D18668A64386604E79D0F85A
:1006700008E09E4046EA0E0686604668AE43466045
:1006800045688E799640B6B235434560C568A54346
:10069000C560CC799C40C3681C43C460521C102ABE
:1006A000C9D3F0BD4B07DB0E9A40C90810B500EB6B
:1006B0008100016A0F249C40A1430162016A114339
:1006C000016210BD4183704701837047FEE700005F
:1006D0001CB50121402000F057F80C2000900120AB
:1006E0008DF8040000208DF8060003218DF8051018
:1006F000054C8DF8070069462046FFF797FF0C214F
:100700002046FFF7E1FF1CBD00180240FEE77047DE
:1007100030B50F23C27801780125FAB1144A126866
:1007200001F1E02102F4E062C2F5E062C2F30722C7
:10073000C2F10404D3404278A24084781C401443A0
:10074000220181F80024007800F01F018D4040094B
:10075000800000F1E020C0F8005130BD01F01F0022
:1007600085404809800000F1E020C0F8805130BD8C
:100770000CED00E0024908430249086070470000A0
:100780000000FA050CED00E0044A0029116801D0D0
:10079000014300E08143116070470000303802409F
:1007A000044A0029116801D0014300E0814311602F
:1007B0007047000040380240044A0029116801D007
:1007C000014300E08143116070470000443802405B
:1007D00070B5204B1968204C11F00C0104D0661044
:1007E000042903D0082903D004601BE0066019E047
:1007F000184A121F1168C1F38055116801F03F01BA
:1008000015B1B6FBF1F101E0B4FBF1F11468126827
:10081000C4F388146143C2F30142521C5200B1FB7D
:10082000F2F1016019680F2202EA11110B4A545CBF
:100830000168E14041601C68072505EA9424145DC5
:1008400021FA04F484601B6805EA5333D25CD1407A
:10085000C16070BD083802400024F4001000002080
:100860002DE9F041012188B00846FFF78DFF0121F5
:100870000220FFF789FF01210420FFF785FF0121F6
:10088000CF033846FFF78CFF02258DF80450002473
:100890004FF4A0508DF80640274E00908DF805507B
:1008A0008DF8074069463046FFF7C0FE06220A2150
:1008B0003046FFF7F7FE06220C213046FFF7F2FE26
:1008C000DFF87880012600978DF80460694640467D
:1008D000FFF7ACFE39464046FFF7F6FEDFF86080D2
:1008E000EF0200978DF8046069464046FFF79EFED0
:1008F00039464046FFF7E8FEADF808404FF48270F5
:10090000ADF80A00A802ADF80C00ADF81440ADF83F
:100910001640ADF8106080100A4CADF81200ADF82A
:100920000E5002A9204600F022F80121204600F0D6
:100930000BF808B0BDE8F08100080240000002405A
:1009400000040240003C00400029018802D041F030
:10095000400101E021F04001018070470246002083
:1009600012890A4200D0012070478181704730B55A
:1009700002884C8802F441530A88CD8822438C882F
:100980002C4322430C8922434C8922438C892243E5
:10099000CC8922431A430280828B22F40062828334
:1009A000098A018230BD00002DE9F0414FF6FF7247
:1009B000C1F3080602EA4020134D06434FF40044F9
:1009C00021462846FFF77EFE104F02213846FFF7EA
:1009D000C5FF0028F9D031463846FFF7C6FF0C4E58
:1009E00080213046FFF7BAFF0128F9D0214628467A
:1009F000FFF768FE052000F017FA21462846BDE8FB
:100A0000F041FFF761BE000000000240003C0040E2
:100A1000003001400CB5002227490092019208687D
:100A200040F4803008604FF4A043086800F40030C0
:100A300001900098401C0090019810B900989842CD
:100A4000F3D10868800334D5012001901A48403062
:100A5000026842F0805202601848026842F4404244
:100A600002601548083002680260026842F40042E1
:100A70000260026842F4A0520260031F104A1A602A
:100A80000A6842F080720A600A689201FCD50D493A
:100A900040F205720A60016821F0030101600168FB
:100AA00041F0020101600168C1F381010229FAD11C
:100AB0000CBD01920CBD00000038024000700040E7
:100AC00008544007003C02404FF0E0210428086928
:100AD00003D020F004000861704740F00400FAE7FA
:100AE00010B500F069FB012803D0BDE8104000F00C
:100AF0004DBB10BD124810B5016841F47001016092
:100B00001048016841F0010101600E4A00210832DD
:100B1000116002680C4B1A400260031D0B4A1A60F8
:100B2000026822F48022026006480C300160FFF760
:100B300071FF03494FF000608039086010BD00006C
:100B400088ED00E000380240FFFFF6FE1030002480
:100B500010B501218C07204600F00FF8012806D1BE
:100B60000121204600F006F801490120087010BD5F
:100B700000000020C9430182704702460020138A0A
:100B800092890B4202EA010202D0002A00D0012021
:100B900070470000F0B50746012187B00846FFF70F
:100BA000F3FD01211020FFF707FE234E0722092144
:100BB0003046FFF777FD07220A213046FFF772FD26
:100BC0004FF4C060049002208DF814008DF81500D9
:100BD00000248DF8164001258DF8175004A93046E1
:100BE000FFF724FDADF808400C20144EADF804408A
:100BF000ADF80A000097ADF80640ADF80C40694624
:100C0000304600F07DF80121304600F037F801222F
:100C100040F22551304600F05AF825208DF8180092
:100C200003208DF819008DF81A408DF81B5006A886
:100C3000FFF76EFD07B0F0BD00000240001001405C
:100C400010B50B4C40F22551204600F021F8012848
:100C50000DD1204600F0AAF8074A064B11685854F7
:100C6000491C1160B1F5806F01D30020106010BDE8
:100C70000010014068000020080000200029818940
:100C800002D041F4005101E021F40051818170470C
:100C900070B501F01F0501260024C1F3421306FAC6
:100CA00005F2012B0FD0022B0FD0838A4FEA1121BE
:100CB0000088134206FA01F600EA060001D000B1EE
:100CC0000124204670BD8389F0E7038AEEE710B562
:100CD000C1F3421301F01F040121A140012B07D0F1
:100CE000022B07D01430002A026805D00A4304E022
:100CF0000C30F8E71030F6E78A43026010BD0000C0
:100D00007FB50446008A0D46C98820F4405001434F
:100D10002182A08941F20C618843A9882A89114364
:100D20006A8902431143A181A08A20F44071A889F5
:100D30000843A0826846FFF74BFD1A48844202D060
:100D40001948844201D1039800E00298A18909045E
:100D500000EBC00101EB0010296801D5490000E05B
:100D60008900B0FBF1F06422B0FBF2F109010B093C
:100D70006FF018056B4300EB8300A3891D044FF04F
:100D8000320306D503EBC000B0FBF2F000F0070021
:100D900005E003EB0010B0FBF2F000F00F00084399
:100DA00020817FBD00100140001401408088C0F305
:100DB00008007047FEE7704710B504460420FFF7AF
:100DC00083FE0A484FF47A71047014FB01F101228A
:100DD00042804FF0E020026942F00202026141616C
:100DE000016941F00101016110BD00000200002015
:100DF00070B5044600F0E0F901280CD0094D688870
:100E0000844203D3B4FBF0F000F044F96888B4FBEB
:100E1000F0F100FB11444FF47A706043BDE870407C
:100E200000F002B80200002070B54FF0E02500216C
:100E30006C69094AAB6912785043AA699A42FCD09E
:100E400002D2A3EB020302E0A4EB020633441944EE
:100E500013468142F1D370BD0200002003490A8885
:100E60005206FCD5C2B28A807047000000100140D3
:100E70004FF44070FFF77EFCA820FFF79DFF4FF472
:100E8000E130FFF787FEFFF723FCFFF7E9FC0A4C90
:100E90006420FFF7ADFF0C212046FFF713FC642010
:100EA000FFF7A6FF0C212046FFF70EFC28212D207E
:100EB000FFF77AFDECE70000001802402DE9F04151
:100EC000184E0F460446F5683068001D00F03EF8E5
:100ED00038B9306890F82C1001208840316981437E
:100EE0003161601C07D137B13168BDE8F0410E486F
:100EF000091D00F055B830682C44AC42446031689C
:100F000005D2B06BBDE8F041091D00F031B8706B3F
:100F1000091D00F02DF8B06A844200D2B462BDE829
:100F2000F081000020000020380700200648416BB7
:100F3000096829B1416BC968C9684968816270470D
:100F40004FF0FF31FAE7000020000020D0E9013225
:100F500001699A60D0E901235A604A68824201D14E
:100F600082684A60002202610868401E086070477B
:100F700030B50C68621C02D000F1080202E0026980
:100F800004E01A4653681D68A542FAD953684B60BD
:100F900099608A60516008610168491C016030BD38
:100FA00042684A6093688B609368596091600861F9
:100FB0000168491C01607047502080F31188BFF31D
:100FC0004F8FBFF36F8F09494868401C4860012864
:100FD0000AD10748006810F0FF0F05D040F2B9129F
:100FE00004A10FA0FFF7A6B9704700005C00002025
:100FF00004ED00E02E2E5C4672656552544F535C42
:10100000706F727461626C655C525644535C4152FD
:101010004D5F434D34465C706F72742E6300000068
:101020004572726F723A25732C25640D0A00000018
:1010300010B5084C606828B94FF4E07206A111A001
:10104000FFF778F96068401E606001D180F3118875
:1010500010BD00005C0000202E2E5C4672656552BB
:10106000544F535C706F727461626C655C5256448D
:10107000535C41524D5F434D34465C706F72742E29
:10108000630000004572726F723A25732C25640D5F
:101090000A00000010B5040012D00E49096B29B1F6
:1010A00040F2CF420CA111A0FFF744F900F028F85C
:1010B00000212046FFF702FF00F000F9002807D1C9
:1010C0000E494FF080500860BFF34F8FBFF36F8F12
:1010D00010BD0000200000202E2E5C467265655277
:1010E000544F535C7461736B732E63004572726F5F
:1010F000723A25732C25640D0A00000004ED00E00F
:101100000248016B491C0163704700002000002069
:1011100070B5134D286B10B10120E86170BD00203F
:10112000E86128690F4EB0FA80F0C0F11F0000EBB3
:10113000800456F8240028B940F6F6220AA10FA030
:10114000FFF7F8F806EB840000F1080241684968EF
:101150004160914201D149684160C868286070BD12
:1011600020000020680400202E2E5C467265655227
:10117000544F535C7461736B732E63004572726FCE
:10118000723A25732C25640D0A00000010B550201A
:1011900080F31188BFF34F8FBFF36F8F00F01AF801
:1011A00018B104494FF080500860002080F3118886
:1011B00010BD000004ED00E00548416919B1006B65
:1011C00018B10020704701207047022070470000CE
:1011D000200000202DE9F0412D4F0026386B40B152
:1011E000B869401CB861F86900B101263046BDE815
:1011F000F081FD686D1CFD6011D1786B006828B12D
:1012000040F6D91223A128A0FFF794F8786BB96BA8
:101210007963B863386A401C3862FFF787FEB86AA2
:10122000DFF89480854209D3786B006880B1786BD1
:10123000C068C468606885420DD2B8623868C06A08
:1012400000EB800158F821000128CCD90126CAE71B
:101250004FF0FF30F1E7201DFFF778FEA06A18B1CC
:1012600004F11800FFF772FEE06A01213A6981403B
:101270001143396100EB800108EB8100211DFFF76C
:101280008FFEE06A3968C96A8842CDD30126CBE770
:10129000200000202E2E5C4672656552544F535C30
:1012A0007461736B732E63004572726F723A2573AB
:1012B0002C25640D0A000000680400202DE9F04789
:1012C0002B4D00242746286B28B94FF4FD6229A135
:1012D0002DA0FFF72FF8FFF76FFE286B401E286345
:1012E000286BE8BBA8682C490126C8B3A1F52A7968
:1012F0008846D8F80010E9B1D8F80C00C46804F1A9
:101300001800FFF723FE201DFFF720FEE06A2A6980
:1013100006FA00F11143296100EB800109EB81001D
:10132000211DFFF73DFEE06A2968C96A8842E0D3C3
:10133000EE61DEE70CB1FFF7F9FDAC693CB1FFF7F8
:1013400049FF00B1EE61641EF9D10020A861E8698F
:1013500030B11249012738070860BFF34F8F00E012
:1013600001E0BFF36F8FFFF763FE3846BDE8F087FB
:10137000200000202E2E5C4672656552544F535C4F
:101380007461736B732E63004572726F723A2573CA
:101390002C25640D0A0000001007002004ED00E079
:1013A0004FF04070E1EE100A70470000CC130008C7
:1013B0000000002068000000C40100083414000888
:1013C00068000020480D0000E00100080000000057
:1013D000000000000000000000000000000000000D
:1013E00001020304010203040607080900000000CB
:1013F00000000000000000000000000000000000ED
:1014000000000000000000000000000000000000DC
:1014100000000000000000000000000000000000CC
:10142000000000000000000000000000AAAAAAAA14
:0414300000000000B8
:040000050800018965
:00000001FF
